:1000000037110020130101803715024013058501C7
:1000100083250500B753000093835383B3E5750030
:100020002320B500371502401305C50183250500BF
:10003000B7032000B3E575002320B5003715014054
:1000400083250500B703FFF09383F300B3F5750034
:10005000B743B000938303DDB3E575002320B500FB
:10006000371501401305C5008325050093030002E1
:10007000B3E575002320B500371501401305054091
:1000800083250500B70310F09383F3FFB3F57500E4
:10009000B703B008B3E575002320B500371501405C
:1000A0001305054083250500B70310F09383F3FF84
:1000B000B3F57500B703B008B3E575002320B500AC
:1000C000371501401305C54083250500930300043F
:1000D000B3E575002320B500374501401305858041
:1000E0008325050093031034B3E575002320B50084
:1000F000374501401305C58083250500B72300005F
:100100009383C300B3E575002320B5003715024083
:100110001305050183250500B7032000B3E575002D
:100120002320B50093C3F3FFB3F575002320B5007A
:10013000375500401305454083150500930300FC27
:10014000B3F5750093038000B3E575002310B50087
:10015000375500401305C54183150500B7F3FFFF70
:10016000B3F5750093038002B3E575002310B50065
:100170003755004013050540831505009303100013
:10018000B3E575002310B500375500401305054051
:100190008315050093030040B3E575002310B500F7
:1001A000EF00D04C9307E004EF009062EF00406452
:1001B00093070008EF00C04FEF10801C130181FF70
:1001C0002320610023227100130300009303000029
:1001D000EF00006F8323410003230100130181001E
:1001E0001301C1FF2320C10017160000130646406B
:1001F000EF0040720326010013014100EF10800D53
:10020000130181FF232061002322710013031000DA
:1002100093030000EF00C06A832341000323010021
:10022000130181001301C1FF2320C1001716000034
:100230001306163DEF00006E032601001301410076
:10024000EF10400937050020130505049303000053
:10025000232075003715014013058500832505000F
:1002600093F50502E39805FEEF00406E1301C1FF10
:100270002320C100171600001306163AEF0080690C
:100280000326010013014100EF10C004371501409F
:1002900013050501B703080023207500EF00C03CDB
:1002A00037150140130505019303800023207500D5
:1002B000EF10C01EEF0080691301C1FF2320C100B1
:1002C0001716000013060636EF00C064032601006F
:1002D00013014100EF1000003715014013058500A0
:1002E0008325050093F50502E39805FE37150140C7
:1002F00013050501B703080023207500EF1040081F
:10030000EF100008EF008022EF00C02537150140F4
:10031000130505019303800023207500EF100018DA
:10032000370500201305050383230500370500204A
:100330001305050123207500EF0040611301C1FF83
:100340002320C100171600001306F62EEF00805C74
:100350000326010013014100EF00D077371501405B
:10036000130585008325050093F50502E39805FE36
:100370003715014013050501B70308002320750058
:10038000EF100000EF00D07FEF00401AEF00801D5B
:1003900037150140130505019303800023207500E4
:1003A000EF10C00F37050020130505038323050058
:1003B000370500201305450123207500EF00005983
:1003C000370500201305450183230500370500206C
:1003D0001305050103230500B38363402320750043
:1003E00037050020130545011303A00023206500F5
:1003F000EF100014EF10800A3705002013050503E5
:10040000032305003705002013054501232065005F
:10041000378301001303036A370500201305050124
:1004200023206500EF10C010EF10400737050020B3
:100430001305050383230500370500201305050474
:1004400023207500EF1080053715014013050501C5
:10045000B703080023207500EF009072EF00000D35
:10046000EF004010EF1080033715014013058500A1
:100470008325050093F50502638C050437050020EC
:10048000130505038323050037038000B3F36300DE
:1004900063840300EF004006B70500209385C50381
:1004A00003A3050083230500B38363402320750065
:1004B000EF00D07EEF00805E3705002013050502B7
:1004C000EF00406AEF00C04BEF00D0606FF0DFF745
:1004D0003705002013050503832305003705002099
:1004E0001305C5032320750013045003EF00D06BE0
:1004F000EF00505E6FF05FF5130141FF2320110004
:10050000232271002324A1003705002013050503D1
:1005100093030000232075000325810083234100FD
:10052000832001001301C10067800000130141FF17
:1005300023201100232271002324A100371501403C
:10054000130585008323050093F30301E39803FE5D
:100550000325810083234100832001001301C10092
:1005600067800000130181FE232011002322A100D7
:100570002324B1002326710023286100232A41008F
:100580003705002013050503130300002320650031
:1005900013029001EF00C006EF00905EEF008009AB
:1005A000EF00105E37150140130585008325050017
:1005B00093030001B3F57500639605001313130050
:1005C0006F00C00013031300131313001302F2FF94
:1005D000E31202FC37050020130505032320650004
:1005E00003224101032301018323C10083258100EC
:1005F0000325410083200100130181016780000071
:10060000130141FF232011002322A10023247100A4
:100610003715014013050501B703080023207500B5
:100620008323810003254100832001001301C100C1
:1006300067800000130141FF232011002322A10045
:100640002324710037150140130505019303800031
:1006500023207500832381000325410083200100AE
:100660001301C10067800000130141FF2320110026
:10067000232271002324A100EF009050EFF01FEB24
:10068000EFF05FEE37050020130505038323050017
:10069000370500201305C5032320750003258100BD
:1006A00083234100832001001301C1006780000003
:1006B000130181FF232011002322A1003705002010
:1006C0001305C5022300F50093F7070F93E7870092
:1006D000EF005001EF00D04AEF00904A93E7C700C7
:1006E000EF005000EF00D049EF00904993F7870FDB
:1006F000EF00407FEF00D048EF0090483705002022
:100700001305C5028307050093F7F7009397470089
:1007100093E78700EF00007DEF009046EF00504622
:1007200093E7C700EF00007CEF009045EF005045D5
:1007300093F7870FEF00007BEF009044EF005044E9
:100740000325410083200100130181006780000020
:10075000130181FF232011002322A100370500206F
:100760001305C5022320F50093F7070F93E79700C1
:10077000EF004077EF00D040EF00904093E7D700C4
:10078000EF004076EF00D03FEF00903F93F7970FD8
:10079000EF004075EF00D03EEF00903E370500209F
:1007A0001305C5028327050093F7F70093974700C9
:1007B00093E79700EF000073EF00903CEF00503C90
:1007C00093E7D700EF000072EF00903BEF00503B43
:1007D00093F7970FEF000071EF00903AEF00503A57
:1007E0000325410083200100130181006780000080
:1007F000130181FF232011002322F100EF00903527
:100800009307C003EF00006EEF009037EF00503702
:1008100093078003EF00006DEF00D0339307C00310
:10082000EF00406CEF00D035EF0090359307800368
:10083000EF00406BEF0010329307C003EF00806AB7
:10084000EF001034EF00D03393078003EF0080698E
:10085000EF0050309307C002EF00C068EF00503245
:10086000EF00103293078002EF00C067EF00902E78
:1008700093078002EFF0DFE3EF009030EF0050309D
:100880009307C000EFF0DFE2EF00902FEF00502F52
:1008900093076000EFF0DFE1EF00902EEF00502EA5
:1008A00093071000EFF0DFE0EF00902DEF00502DE8
:1008B000832741008320010013018100678000002D
:1008C0001301C1FF23201100630403021303000C72
:1008D0003303730093070300EFF09FDDEF00502A0E
:1008E000EF00102A832001001301410067800000FF
:1008F000130300083303730093070300EFF05FDB7B
:10090000EF001028EF00D0278320010013014100E1
:1009100067800000130181FF232011002322F100D2
:1009200083070600638C0700EFF09FE2EF0050257D
:10093000EF001025130616006FF09FFE832741007D
:10094000832001001301810067800000130181FFF3
:10095000232011002322F10093071000EFF05FD550
:10096000EF001022EF00D02193072000EFF05FD4BA
:10097000832741008320010013018100678000006C
:10098000130101FF23201100232261002324A10071
:100990002326F100370500201305850413055500B3
:1009A0000303050013051500230065001305F5FF7B
:1009B0001303E00223006500130181FF232061007F
:1009C000232271001303000093030000EFF05FEF98
:1009D0008323410003230100130181001301C1FFA0
:1009E0002320C10017160000130686C2EFF09FF205
:1009F0000326010013014100130181FF2320610040
:100A0000232271001303100093031000EFF05FEB3B
:100A100083234100032301001301810013037000AD
:100A2000370500201305850483070500EFF05FD22A
:100A3000EF001015EF00D014130515001303F3FF9A
:100A4000E31403FE130181FF2320610023227100C0
:100A50001303100093039000EFF09FE683234100FF
:100A600003230100130181001301C1FF2320C100F2
:100A700017160000130676BDEFF0DFE9032601002C
:100A8000130141008327C100032581000323410096
:100A90008320010013010101678000001301C1FDE3
:100AA000232011002322A1002324B100232651007A
:100AB00023286100232A7100232CF100232E31000A
:100AC00023204102B70700209387070303A50700EF
:100AD00063000504634E0502B702002093820204FE
:100AE00083A5020093020000930300001303050096
:100AF0009381050063820102338263003336720002
:100B0000B382C200930302009381F1FF6FF09FFE56
:100B100093030000930200001385030093850200F5
:100B2000B70700209387070223A0A700B70700207C
:100B30009387470223A0B700032201028321C1014A
:100B40008327810183234101032301018322C10003
:100B50008325810003254100832001001301410208
:100B600067800000130101FE232E1100232CF100E9
:100B7000232AB10023288100232671002324510059
:100B80002322410023206100130200009302000091
:100B900093030000130400009307000003220500E4
:100BA000B7D39A3B938303A033047240B3327200ED
:100BB0006398020013020400938717006FF0DFFEB2
:100BC0009387070337050020130585042300F500EC
:100BD00093070000B7E3F5059383031033047240D5
:100BE000B332720063980200130204009387170067
:100BF0006FF0DFFE93870703130515002300F50050
:100C000093070000B79398009383036833047240FE
:100C1000B332720063980200130204009387170036
:100C20006FF0DFFE93870703130515002300F5001F
:100C300093070000B7430F009383032433047240EB
:100C4000B332720063980200130204009387170006
:100C50006FF0DFFE93870703130515002300F500EF
:100C600093070000B78301009383036A3304724043
:100C7000B3327200639802001302040093871700D6
:100C80006FF0DFFE93870703130515002300F500BF
:100C900093070000B723000093830371330472406D
:100CA000B3327200639802001302040093871700A6
:100CB0006FF0DFFE93870703130515002300F5008F
:100CC000930700009303803E33047240B3327200F6
:100CD0006398020013020400938717006FF0DFFE91
:100CE00093870703130515002300F5009307000001
:100CF0009303400633047240B332720063980200DB
:100D000013020400938717006FF0DFFE9387070339
:100D1000130515002300F500930700009303A000BE
:100D200033047240B332720063980200130204006D
:100D3000938717006FF0DFFE9387070313051500F5
:100D40002300F50093070000930702009387070331
:100D5000130515002300F5000323010003224100C1
:100D6000832281008323C1000324010183254101E3
:100D7000832781018320C1011301010267800000E4
:100D80001301C1FE232811002326B1002324A10052
:100D90002322810023206100B70500209385C5022E
:100DA00023A0050037050020130585041303000068
:100DB0009307A00003040500130200036308440422
:100DC000B70500209385C5029302100023A05500AB
:100DD0001305150013031300EF00005DE31CF3FC83
:100DE0001304D000EF00405C1304A000EF00C05BD0
:100DF0000323010003244100032581008325C10052
:100E0000832001011301410167800000B705002024
:100E10009385C50283A205006398020013040002B3
:100E200013029000630443006FF09FFA1304000361
:100E30006FF01FFA130141FF232011002322A100AC
:100E40002324B10037550040130585418315050063
:100E500093F52500E39805FE8325810003254100D5
:100E6000832001001301C100678000001301C1FE4F
:100E7000232011002322C1002324B1002326A10036
:100E800023287100375500401305054083150500E0
:100E900093E505502310B500375500401305454133
:100EA00083150500375500401305854103160500DD
:100EB00013160601B3E5C500B703030093831300BF
:100EC000B3F57500E39A75FC832301010325C10086
:100ED0008325810003264100832001001301410185
:100EE00067800000130141FF232011002322A1008D
:100EF0002324B100375500401305454183150500F3
:100F000093F50508E38805FE3755004013050541B4
:100F10002300F50083258100032541008320010083
:100F20001301C10067800000130141FF232011005D
:100F30002322A1002324B1003755004013050540AA
:100F40008315050093F5F5BF2310B50083258100B7
:100F500003254100832001001301C10067800000C8
:100F6000130141FF232011002322A1002324B100FB
:100F700037550040130545418315050093F50508D5
:100F8000E38805FE832581000325410083200100BD
:100F90001301C10067800000130141FF23201100ED
:100FA0002322A1002324B10037550040130505403A
:100FB0008315050093E505202310B50083258100E6
:100FC00003254100832001001301C1006780000058
:100FD0001301C1FE232011002322A1002324B1000C
:100FE0002326C10023287100375500401305054111
:100FF0002300F500375500401305454183150500D2
:1010000037550040130585410316050013160601E8
:10101000B3E5C500B703070093832308B3F5750054
:10102000E39A75FC832301010326C1008325810017
:101030000325410083200100130141016780000066
:10104000130101FF232011002322A1002324B1005A
:101050002326C1003755004013054541831505007F
:101060003755004013058541031605001316060188
:10107000B3E5C50037050020130545042320B5005E
:101080000326C10083258100032541008320010040
:101090001301010167800000130141FF23201100AB
:1010A0002322A1002324B1003755004013054541F8
:1010B0008325050093F54500E38805FE832581001F
:1010C00003254100832001001301C1006780000057
:1010D0001301C1FE232011002322A1002324B1000B
:1010E000232661002328C100370300201303430493
:1010F000375500401305454183150500375500401D
:10110000130585410316050013160601B3E5C50056
:10111000B703030093832300B3F57500E39A75FCCE
:1011200037550040130545418315050037550040EC
:101130001305854183150500EFF01FDFEFF0DFE5B4
:1011400037550040130545418325050093F50504F7
:10115000E38805FE37550040130505418307050068
:101160002300F300032601010323C100832581002E
:101170000325410083200100130141016780000025
:10118000130141FE232011002322A1002324B100DA
:101190002326610023287100232A5100232CC1003B
:1011A00037550040130505412300F5003755004031
:1011B000130545418315050037550040130585414A
:1011C0000316050013160601B3E5C500B7030300B7
:1011D00093832300B3F57500E39A75FC37550040FF
:1011E000130545418315050037550040130585411A
:1011F000831505009303200063FC5302375500401C
:10120000130545418325050093F50504E38805FE94
:101210003755004013050541830705002300F300FF
:10122000130313009382F2FF63F453006FF01FFD6A
:1012300037550040130545418315050093F5050416
:10124000E38805FE37550040130505418307050077
:101250002300F30013031300EFF01FCDEFF0DFD3F3
:1012600037550040130545418315050093F50504E6
:10127000E38805FE37550040130505418307050047
:101280002300F3000326810183224101832301010E
:101290000323C10083258100032541008320010031
:1012A0001301C10167800000130181FF2320110099
:1012B0002322610037B33201130353401303F3FFBA
:1012C000E31E03FE0323410083200100130181007C
:1012D00067800000130181FF232011002322610099
:1012E00037B31E001303A3B91303F3FFE31E03FE7A
:1012F0000323410083200100130181006780000067
:10130000130181FF23201100232261001303A07D1C
:101310001303F3FFE31E03FE0323410083200100B8
:101320001301810067800000130181FF2320110059
:101330002322610037530000130343E81303F3FF34
:10134000E31E03FE032341008320010013018100FB
:1013500067800000130181FF232011002322610018
:1013600037930100130343891303F3FFE31E03FEC6
:1013700003234100832001001301810067800000E6
:10138000130181FF23201100232261001303900623
:101390001303F3FFE31E03FE032341008320010038
:1013A0001301810067800000130101FF2320110059
:1013B000232271002324A1002326B10037450140D8
:1013C000130505808325050093F50508E38E05FCCC
:1013D0009303040037450140130545802300750041
:1013E00037450140130505808325050093F5050465
:1013F000E38805FE8325C100032581008323410086
:101400008320010013010101678000001301C1FE68
:10141000232011002322A1002324D1002326E10050
:10142000232881009386030093F6060F93D6460087
:1014300013A7A600630A070093E6060313840600B9
:10144000EFF09FF66F000001938676031384060089
:10145000EFF09FF59386030093F6F60013A7A6001E
:10146000630A070093E6060313840600EFF0DFF338
:101470006F0000019386760313840600EFF0DFF21D
:10148000032401010327C1008326810003254100B5
:101490008320010013014101678000001301C1FE98
:1014A000232011002322A1002324610023267100A0
:1014B000232881003705002013050503130340008E
:1014C00083033500EFF09FF41305F5FF1303F3FFDB
:1014D000E31803FE1304D000EFF01FED1304A00087
:1014E000EFF09FEC370500201305050413034000BF
:1014F00083033500EFF09FF11305F5FF1303F3FFAE
:10150000E31803FE1304D000EFF01FEA1304A00059
:10151000EFF09FE9032401018323C100032381002D
:101520000325410083200100130141016780000071
:10153000130101FE232011002322A1002324B10066
:101540002326C1002328D100232AE100232CF10007
:10155000232E610013030000930300001306000014
:10156000130700009307000037050020130505014D
:101570008325050037050020130545018326050056
:10158000B387D54033B3D500631A030093850700B2
:10159000B307E640938313006FF09FFEB70200206D
:1015A0009382020323A07200B702002093824203B9
:1015B00023A0B2000323C101832781010327410136
:1015C000832601010326C1008325810003254100F4
:1015D0008320010013010102678000001300000056
:0C15E000000000000000000000000000FF
:1015EC0020706C65617365207265207A65726F205E
:1015FC000020622034207765696768696E67200077
:10160C0020776569676874200020207A65726F699D
:10161C006E67200020706C61636520776569676870
:10162C00742035676D200020706C616365207765D0
:0F163C0069676874203130676D200020676D008A
:00000001FF
