:1000000037110020130101803715024013058501C7
:1000100083250500B753000093835383B3E5750030
:100020002320B500371502401305C50183250500BF
:10003000B7032000B3E575002320B5003715014054
:1000400083250500B70300F09383F300B3F5750033
:10005000B7438408938303DDB3E575002320B5001F
:10006000371501401305C5008325050093030006DD
:10007000B3E575002320B500371501401305054091
:1000800083250500B70310F09383F3FFB3F57500E4
:10009000B703B008B3E575002320B500371501405C
:1000A0001305054083250500B70310F09383F3FF84
:1000B000B3F57500B703B008B3E575002320B500AC
:1000C000371501401305C54083250500930300043F
:1000D000B3E575002320B500374501401305858041
:1000E0008325050093031034B3E575002320B50084
:1000F000374501401305C58083250500B72300005F
:100100009383C300B3E575002320B5003715024083
:100110001305050183250500B7032000B3E575002D
:100120002320B50093C3F3FFB3F575002320B5007A
:10013000375500401305454083150500930300FC27
:10014000B3F5750093038000B3E575002310B50087
:10015000375500401305C54183150500B7F3FFFF70
:10016000B3F5750093038002B3E575002310B50065
:100170003755004013050540831505009303100013
:10018000B3E575002310B500375500401305054051
:100190008315050093030040B3E575002310B500F7
:1001A000EF0010559307E004EF00D06AEF00C06A3B
:1001B00093070008EF00405AEF10C024130181FF9D
:1001C0002320610023227100130300009303000029
:1001D000EF00C07583234100032301001301810058
:1001E0001301C1FF2320C100171600001306464863
:1001F000EF00807A0326010013014100EF10C015C3
:10020000130181FF232061002322710013031000DA
:1002100093030000EF00807183234100032301005A
:10022000130181001301C1FF2320C1001716000034
:1002300013061645EF004076032601001301410026
:10024000EF108011EF104011EF000079370500200A
:100250001305050493030000232075006F00802818
:1002600093070008EF00404FEF10C019EF00C07671
:10027000130181FF2320610023227100130300007A
:1002800093030000EF00806A8323410003230100F1
:10029000130181001301C1FF2320C10017160000C4
:1002A00013062643EF00406F0326010013014100AF
:1002B000EF10800AEF10400A130181FF2320610034
:1002C000232271001303100093030000EF00006667
:1002D0008323410003230100130181001301C1FFA7
:1002E0002320C100171600001306763FEF00C06AF6
:1002F0000326010013014100EF10000637150140ED
:10030000130585008325050093F50502E39805FE96
:10031000EF00806C130181FF232061002322710014
:100320001303000093030000EF00406083234100AB
:1003300003230100130181001301C1FF2320C10029
:100340001716000013065635EF000065032601005E
:1003500013014100EF10400037150140130505015E
:10036000B703080023207500EF00803A37150140DD
:10037000130505019303800023207500EF00C0657D
:10038000130181FF23206100232271001303000069
:1003900093030000EF0080598323410003230100F1
:1003A000130181001301C1FF2320C10017160000B3
:1003B00013067630EF00405E032601001301410072
:1003C000EF0090793715014013058500832505005E
:1003D00093F50502E39805FE371501401305050165
:1003E000B703080023207500EF10C001EF10800153
:1003F000EF00401EEF008021371501401305050175
:1004000093038000232075003705002013050503A2
:1004100083230500370500201305050123207500FF
:10042000EF00805B370500201305C503032305009B
:10043000B3836340370500201305050123207500B1
:1004400037050020130545019303A0002320750004
:10045000EF104016370500201305050303230500A0
:10046000370500201305450123206500378301006F
:100470001303036A370500201305050123206500D7
:10048000EF104013370500201305050383230500F3
:10049000370500201305050423207500130181FF93
:1004A0002320610023227100130300009303000046
:1004B000EF00C047832341000323010013018100A3
:1004C0001301C1FF2320C100171600001306F621F7
:1004D000EF00804C0326010013014100EF00D067BC
:1004E000EF00804F3715014013050501B7030800E1
:1004F00023207500EF001071EF00C00DEF00001118
:10050000EF10000237150140130585008325050013
:1005100093F505026386050637150140130585002E
:100520008325050093F50504E38C05D237050020EB
:10053000130505038323050037038000B3F363002D
:1005400063840300EF00C005B70500209385C50351
:1005500003A3050083230500B383634023207500B4
:10056000EF00107CEF00C05B37050020130505028B
:10057000EF008067EF000049EF00105E6FF09FF61C
:1005800037050020130505038323050037050020E8
:100590001305C50323207500EF00105C6FF09FF476
:1005A000130141FF23201100232271002324A10005
:1005B0003705002013050503930300002320750071
:1005C0000325810083234100832001001301C10022
:1005D00067800000130141FF2320110023227100D6
:1005E0002324A1003715014013058500832305004E
:1005F00093F30301E39803FE032581008323410065
:10060000832001001301C10067800000130181FEF7
:10061000232011002322A1002324B10023267100EE
:1006200023286100232A4100370500201305050314
:10063000130300002320650013029001EF00C006A1
:10064000EF00505CEF008009EF00D05B37150140F0
:10065000130585008325050093030001B3F575009C
:1006600063960500131313006F00C00013031300FB
:10067000131313001302F2FFE31202FC37050020EC
:100680001305050323206500032241010323010113
:100690008323C100832581000325410083200100BD
:1006A0001301810167800000130141FF2320110025
:1006B0002322A100232471003715014013050501F1
:1006C000B703080023207500832381000325410020
:1006D000832001001301C10067800000130141FF66
:1006E000232011002322A10023247100371501408B
:1006F00013050501930380002320750083238100E7
:1007000003254100832001001301C1006780000020
:10071000130141FF23201100232271002324A10093
:10072000EF00504EEFF01FEBEFF05FEE37050020CB
:100730001305050383230500370500201305C503B2
:1007400023207500032581008323410083200100BD
:100750001301C10067800000130181FF23201100F5
:100760002322A100370500201305C5022300F50050
:1007700093F7070F93E7C700EF00007FEF00904863
:10078000EF00504893F7870FEF00007EEF0090478F
:10079000EF005047370500201305C5028307050009
:1007A00093F7F7009397470093E7C700EF00C07BEC
:1007B000EF005045EF00104593F7870FEF00C07A28
:1007C000EF005044EF001044032541008320010056
:1007D0001301810067800000130181FF23201100B5
:1007E0002322A100370500201305C5022320F500B0
:1007F00093F7070F93E7D700EF000077EF009040E3
:10080000EF00504093F7970FEF000076EF00903F16
:10081000EF00503F370500201305C5028327050070
:1008200093F7F7009397470093E7D700EF00C07363
:10083000EF00503DEF00103D93F7970FEF00C072AF
:10084000EF00503CEF00103C0325410083200100E5
:100850001301810067800000130181FF2320110034
:100860002322F100EF0050379307C003EF00C06F61
:10087000EF005039EF00103993078003EF00C06E8E
:10088000EF00D0329307C003EF00006EEF00903707
:10089000EF00503793078003EF00006DEF00103139
:1008A0009307C003EF00406CEF00D035EF009035A8
:1008B00093078003EF00406BEF00502F9307C002B7
:1008C000EF00806AEF001034EF00D033930780020E
:1008D000EF008069EF00102B93078002EFF0DFE755
:1008E000EF00502A9307C000EFF01FE7EF009029B8
:1008F00093076000EFF05FE6EF00D0289307100049
:10090000EFF09FE5EF001028EF00D02793072000BD
:10091000EFF09FE4EF001027EF00D026832741007F
:100920008320010013018100678000001301C1FFD3
:1009300023201100630A03021303000C3303730026
:1009400093070300EFF05FE1EF00D02BEF00902B57
:10095000EF00502BEF00102BEF00D02A8320010076
:100960001301410067800000130300083303730084
:1009700093070300EFF05FDEEF00D028EF00902830
:10098000EF005028EF001028EF00D027832001004F
:100990001301410067800000130181FF2320110033
:1009A0002322F1008307060063800702EFF0DFE2F5
:1009B000EF005025EF001025EF00D024EF00902429
:1009C000130616006FF01FFE8327410083200100ED
:1009D0001301810067800000130181FF23201100B3
:1009E0002322F10093071000EFF01FD7EF009019BA
:1009F000EF0050198327410083200100130181007B
:100A000067800000130101FF2320110023226100F1
:100A10002324A1002326F1003705002013058504B7
:100A20001305550003030500130515002300650099
:100A30001305F5FF1303E00223006500130181FF96
:100A400023206100232271001303000093030000A0
:100A5000EFF0DFED83234100032301001301810048
:100A60001301C1FF2320C10017160000130646C260
:100A7000EFF09FF20326010013014100130181FFF3
:100A80002320610023227100130310009303100040
:100A9000EFF0DFE98323410003230100130181000C
:100AA0001303700037050020130585048307050034
:100AB000EFF09FD2EF001015EF00D01413051500D2
:100AC0001303F3FFE31403FE130181FF23206100EE
:100AD000232271001303100093039000EFF01FE531
:100AE0008323410003230100130181001301C1FF8F
:100AF0002320C10017160000130636BDEFF0DFE912
:100B000003260100130141008327C1000325810052
:100B100003234100832001001301010167800000CD
:100B20001301C1FD232011002322A1002324B100C1
:100B30002326510023286100232A7100232CF10071
:100B4000232E310023204102B7070020938707039B
:100B500003A5070063000504634E0502B7020020E9
:100B60009382020483A50200930200009303000015
:100B70001303050093810500638201023382630041
:100B800033367200B382C200930302009381F1FFF7
:100B90006FF09FFE93030000930200001385030093
:100BA00093850200B70700209387070223A0A700C0
:100BB000B70700209387470223A0B7000322010252
:100BC0008321C10183278101832341010323010183
:100BD0008322C10083258100032541008320010079
:100BE0001301410267800000130101FE232E110052
:100BF000232CF100232AB100232881002326710031
:100C0000232451002322410023206100130200000D
:100C100093020000930300001304000093070000F8
:100C200003220500B7D39A3B938303A03304724099
:100C3000B332720063980200130204009387170016
:100C40006FF0DFFE93870703370500201305850447
:100C50002300F50093070000B7E3F5059383031025
:100C600033047240B332720063980200130204002E
:100C7000938717006FF0DFFE9387070313051500B6
:100C80002300F50093070000B7939800938303684F
:100C900033047240B33272006398020013020400FE
:100CA000938717006FF0DFFE938707031305150086
:100CB0002300F50093070000B7430F00938303243C
:100CC00033047240B33272006398020013020400CE
:100CD000938717006FF0DFFE938707031305150056
:100CE0002300F50093070000B78301009383036A94
:100CF00033047240B332720063980200130204009E
:100D0000938717006FF0DFFE938707031305150025
:100D10002300F50093070000B723000093830371BD
:100D200033047240B332720063980200130204006D
:100D3000938717006FF0DFFE9387070313051500F5
:100D40002300F500930700009303803E33047240B4
:100D5000B3327200639802001302040093871700F5
:100D60006FF0DFFE93870703130515002300F500DE
:100D7000930700009303400633047240B3327200BD
:100D80006398020013020400938717006FF0DFFEE0
:100D900093870703130515002300F5009307000050
:100DA0009303A00033047240B332720063980200D0
:100DB00013020400938717006FF0DFFE9387070389
:100DC000130515002300F5009307000093070200A8
:100DD00093870703130515002300F5000323010083
:100DE00003224100832281008323C10003240101E7
:100DF00083254101832781018320C1011301010261
:100E0000678000001301C1FE232811002326B100D2
:100E10002324A1002322810023206100B7050020A4
:100E20009385C50223A0050037050020130585041E
:100E3000130300009307A00003040500130200033E
:100E400063084404B70500209385C502930210008F
:100E500023A055001305150013031300EF00005DD8
:100E6000E31CF3FC1304D000EF00405C1304A0006B
:100E7000EF00C05B03230100032441000325810030
:100E80008325C10083200101130141016780000017
:100E9000B70500209385C50283A205006398020070
:100EA0001304000213029000630443006FF09FFAE2
:100EB000130400036FF01FFA130141FF23201100F8
:100EC0002322A1002324B10037550040130585419A
:100ED0008315050093F52500E39805FE8325810021
:100EE00003254100832001001301C1006780000039
:100EF0001301C1FE232011002322C1002324B100CD
:100F00002326A10023287100375500401305054012
:100F10008315050093E505502310B50037550040B3
:100F200013054541831505003755004013058541DC
:100F30000316050013160601B3E5C500B703030049
:100F400093831300B3F57500E39A75FC83230101C5
:100F50000325C10083258100032641008320010071
:100F60001301410167800000130141FF232011009C
:100F70002322A1002324B100375500401305454129
:100F80008315050093F50508E38805FE37550040F5
:100F9000130505412300F500832581000325410049
:100FA000832001001301C10067800000130141FF8D
:100FB000232011002322A1002324B1003755004033
:100FC000130505408315050093F5F5BF2310B50003
:100FD0008325810003254100832001001301C10006
:100FE00067800000130141FF232011002322A1008C
:100FF0002324B100375500401305454183150500F2
:1010000093F50508E38805FE83258100032541004B
:10101000832001001301C10067800000130141FF1C
:10102000232011002322A1002324B10037550040C2
:10103000130505408315050093E505202310B50031
:101040008325810003254100832001001301C10095
:10105000678000001301C1FE232011002322A1009C
:101060002324B1002326C1002328710037550040F6
:10107000130505412300F500375500401305454190
:1010800083150500375500401305854103160500FB
:1010900013160601B3E5C500B703070093832308C1
:1010A000B3F57500E39A75FC832301010326C100A3
:1010B00083258100032541008320010013014101A4
:1010C00067800000130101FF232011002322A100EB
:1010D0002324B1002326C1003755004013054541A4
:1010E000831505003755004013058541031605009B
:1010F00013160601B3E5C5003705002013054504A6
:101100002320B5000326C10083258100032541006B
:10111000832001001301010167800000130141FFDA
:10112000232011002322A1002324B10037550040C1
:10113000130545418325050093F54500E38805FE29
:101140008325810003254100832001001301C10094
:10115000678000001301C1FE232011002322A1009B
:101160002324B100232661002328C1003703002077
:10117000130343043755004013054541831505000B
:101180003755004013058541031605001316060167
:10119000B3E5C500B703030093832300B3F57500DF
:1011A000E39A75FC3755004013054541831505004A
:1011B000375500401305854183150500EFF01FDF0B
:1011C000EFF0DFE537550040130545418325050065
:1011D00093F50504E38805FE3755004013050541E6
:1011E000830705002300F300032601010323C10048
:1011F0008325810003254100832001001301410163
:1012000067800000130141FE232011002322A1006A
:101210002324B1002326610023287100232A5100D2
:10122000232CC10037550040130505412300F5006C
:1012300037550040130545418315050037550040DB
:10124000130585410316050013160601B3E5C50015
:10125000B703030093832300B3F57500E39A75FC8D
:1012600037550040130545418315050037550040AB
:1012700013058541831505009303200063FC530289
:1012800037550040130545418325050093F50504B6
:10129000E38805FE37550040130505418307050027
:1012A0002300F300130313009382F2FF63F453004F
:1012B0006FF01FFD375500401305454183150500AC
:1012C00093F50504E38805FE3755004013050541F5
:1012D000830705002300F30013031300EFF01FCD75
:1012E000EFF0DFD337550040130545418315050066
:1012F00093F50504E38805FE3755004013050541C5
:10130000830705002300F3000326810183224101A6
:10131000832301010323C1008325810003254100AC
:10132000832001001301C10167800000130181FFC8
:10133000232011002322610037B3320113035340ED
:101340001303F3FFE31E03FE032341008320010088
:101350001301810067800000130181FF2320110029
:101360002322610037B31E001303A3B91303F3FF55
:10137000E31E03FE032341008320010013018100CB
:1013800067800000130181FF2320110023226100E8
:101390001303A07D1303F3FFE31E03FE03234100A9
:1013A000832001001301810067800000130181FF89
:1013B000232011002322610037530000130343E868
:1013C0001303F3FFE31E03FE032341008320010008
:1013D0001301810067800000130181FF23201100A9
:1013E0002322610037930100130343891303F3FFA2
:1013F000E31E03FE0323410083200100130181004B
:1014000067800000130181FF232011002322610067
:10141000130390061303F3FFE31E03FE03234100AF
:10142000832001001301810067800000130101FF88
:1014300023201100232271002324A1002326B100C0
:1014400037450140130505808325050093F5050800
:10145000E38E05FC930304003745014013054580E6
:1014600023007500374501401305058083250500DD
:1014700093F50504E38805FE8325C100032581005B
:1014800083234100832001001301010167800000D4
:101490001301C1FE232011002322A1002324D10027
:1014A0002326E100232881009386030093F6060F8C
:1014B00093D6460013A7A600630A070093E6060327
:1014C00013840600EFF09FF66F0000019386760309
:1014D00013840600EFF09FF59386030093F6F60061
:1014E00013A7A600630A070093E606031384060009
:1014F000EFF0DFF36F00000193867603138406009C
:10150000EFF0DFF2032401010327C10083268100ED
:101510000325410083200100130141016780000081
:101520001301C1FE232011002322A1002324610006
:1015300023267100232881003705002013050503A9
:101540001303400083033500EFF09FF41305F5FF0C
:101550001303F3FFE31803FE1304D000EFF01FEDB5
:101560001304A000EFF09FEC3705002013050504DD
:101570001303400083033500EFF09FF11305F5FFDF
:101580001303F3FFE31803FE1304D000EFF01FEA88
:101590001304A000EFF09FE9032401018323C1009D
:1015A0000323810003254100832001001301410131
:1015B00067800000130101FE232011002322A100F7
:1015C0002324B1002326C1002328D100232AE100CF
:1015D000232CF100232E610013030000930300006D
:1015E00013060000130700009307000037050020D2
:1015F0001305050183250500370500201305450166
:1016000083260500B387D54033B3D500631A0300A2
:1016100093850700B307E640938313006FF09FFEA6
:10162000B70200209382020323A07200B7020020B9
:101630009382420323A0B2000323C10183278101C7
:1016400003274101832601010326C1008325810070
:10165000032541008320010013010102678000007F
:0C1660000000000000000000000000007E
:10166C0020706C65617365207265207A65726F20DD
:10167C000020622034207765696768696E672000F6
:10168C0020776569676874200020207A65726F691D
:10169C006E67200020706C616365207765696768F0
:1016AC00742035676D200020706C61636520776550
:1016BC0069676874203130676D2000206772616D36
:1016CC00730020656D70747920746172652000431D
:1016DC00616C6962726174696E670043616C696206
:0C16EC00726174696F6E20646F6E65009F
:00000001FF
