:1000000037110020130101803715024013058501C7
:1000100083250500B753000093835383B3E5750030
:100020002320B500371502401305C50183250500BF
:10003000B7032000B3E575002320B5003715014054
:1000400083250500B70300F09383F300B3F5750033
:10005000B7438408938303DDB3E575002320B5001F
:10006000371501401305C5008325050093030006DD
:10007000B3E575002320B500371501401305054091
:1000800083250500B70310F09383F3FFB3F57500E4
:10009000B703B008B3E575002320B500371501405C
:1000A0001305054083250500B70310F09383F3FF84
:1000B000B3F57500B703B008B3E575002320B500AC
:1000C000371501401305C54083250500930300043F
:1000D000B3E575002320B500374501401305858041
:1000E0008325050093031034B3E575002320B50084
:1000F000374501401305C58083250500B72300005F
:100100009383C300B3E575002320B5003715024083
:100110001305050183250500B7032000B3E575002D
:100120002320B50093C3F3FFB3F575002320B5007A
:10013000375500401305454083150500930300FC27
:10014000B3F5750093038000B3E575002310B50087
:10015000375500401305C54183150500B7F3FFFF70
:10016000B3F5750093038002B3E575002310B50065
:100170003755004013050540831505009303100013
:10018000B3E575002310B500375500401305054051
:100190008315050093030040B3E575002310B500F7
:1001A000B70500209385C50023A00500EF00D055BA
:1001B0009307E004EF00906BEF00C0749307000812
:1001C000EF004064EF108025130181FF23206100C0
:1001D000232271001303000093030000EF00C07F8F
:1001E0008323410003230100130181001301C1FF98
:1001F0002320C10017260000130606BBEF00900461
:100200000326010013014100EF108016130181FF46
:1002100023206100232271001303100093030000C8
:10022000EF00807B83234100032301001301810041
:100230001301C1FF2320C100172600001306D6B703
:10024000EF0050000326010013014100EF1040129F
:10025000EF100012EF00100337050020130505040E
:1002600093030000232075006F0080289307000887
:10027000EF004059EF10801AEF00D000130181FF0A
:100280002320610023227100130300009303000068
:10029000EF008074832341000323010013018100D8
:1002A0001301C1FF2320C100172600001306E6B585
:1002B000EF0040790326010013014100EF10400BCD
:1002C000EF10000B130181FF232061002322710036
:1002D0001303100093030000EF000070832341001C
:1002E00003230100130181001301C1FF2320C1007A
:1002F00017260000130636B2EF00C0740326010073
:1003000013014100EF10C0063715014013058500A9
:100310008325050093F50502E39805FEEF0080763E
:10032000130181FF232061002322710013030000C9
:1003300093030000EF00406A832341000323010080
:10034000130181001301C1FF2320C1001726000003
:10035000130616A8EF00006F0326010013014100E9
:10036000EF1000013715014013050501B703080020
:1003700023207500EF008044371501401305050167
:100380009303800023207500EF00C06F130181FFED
:100390002320610023227100130300009303000057
:1003A000EF008063832341000323010013018100D8
:1003B0001301C1FF2320C10017260000130636A336
:1003C000EF0040680326010013014100EF00507A5E
:1003D00037150140130585008325050093F50502B7
:1003E000E39805FE3715014013050501B703080022
:1003F00023207500EF108002EF104002EF0040282C
:10040000EF00802B37150140130505019303800091
:1004100023207500370500201305050383230500FD
:10042000370500201305050123207500EF008065C6
:10043000370500201305C50303230500B38363407C
:10044000370500201305050123207500370500201E
:10045000130545019303A00023207500EF10C01879
:100460003705002013050503032305003705002089
:100470001305450123206500378301001303036A38
:10048000370500201305050123206500EF10C01576
:1004900037050020130505038323050037050020D9
:1004A0001305050423207500130181FF232061003B
:1004B000232271001303000093030000EF00C051DA
:1004C0008323410003230100130181001301C1FFB5
:1004D0002320C100172600001306B694EF008056B3
:1004E0000326010013014100EF009068EF008059DE
:1004F0003715014013050501B703080023207500D7
:10050000EF00D071EF00C017EF00001BEF10800468
:1005100037150140130585008325050093F5050275
:100520006386050637150140130585008325050000
:1005300093F50504E38C05D2370500201305050368
:100540008323050037038000B3F363006384030053
:10055000EF00C00FB70500209385C50303A3050076
:1005600083230500B383634023207500EF00907E52
:10057000EF00406F3705002013050502EF00007BF8
:10058000EF000053EF00D05E6F00400237050020FF
:100590001305050383230500370500201305C50354
:1005A00023207500EF00D05C6FF09FF4EF10002D5A
:1005B0001301C1FF232061001303C00CEF100015CD
:1005C00003230100130141001301C1FF2320610037
:1005D00013034004EF10000C03230100130141003A
:1005E000EF10C036370500201305450483230500AE
:1005F000E39803FEEF1080281301C1FF2320610060
:100600001303C00CEF1080100323010013014100FD
:100610001301C1FF232061001303E00BEF108007DB
:100620000323010013014100EF10004CEF10C05DE7
:100630003705002013050502EF00406FEF1000247E
:10064000EF00C054EF00D0526FF09FEA130141FF5A
:1006500023201100232271002324A100370500204C
:100660001305050393030000232075000325810073
:1006700083234100832001001301C1006780000033
:10068000130141FF23201100232271002324A10024
:1006900037150140130585008323050093F30301FB
:1006A000E39803FE0325810083234100832001009A
:1006B0001301C10067800000130181FE2320110097
:1006C0002322A1002324B1002326710023286100E6
:1006D000232A4100370500201305050313030000FA
:1006E0002320650013029001EF00C006EF001053B5
:1006F000EF008009EF009052371501401305850087
:100700008325050093030001B3F57500639605008A
:10071000131313006F00C00013031300131313000F
:100720001302F2FFE31202FC370500201305050354
:100730002320650003224101032301018323C1001B
:1007400083258100032541008320010013018101DD
:1007500067800000130141FF232011002322A10024
:10076000232471003715014013050501B703080064
:10077000232075008323810003254100832001008D
:100780001301C10067800000130141FF2320110005
:100790002322A10023247100371501401305050110
:1007A00093038000232075008323810003254100EB
:1007B000832001001301C10067800000130141FF85
:1007C00023201100232271002324A100EF001045F3
:1007D000EFF01FEBEFF05FEE370500201305050388
:1007E00083230500370500201305C503232075006A
:1007F0000325810083234100832001001301C100F0
:1008000067800000130181FF232011002322A10033
:10081000370500201305C5022300F50093F7070FE5
:1008200093E7C700EF00C075EF00503FEF00103FA7
:1008300093F7870FEF00C074EF00503EEF00103EBB
:10084000370500201305C5028307050093F7F7005D
:100850009397470093E7C700EF008072EF00103CCA
:10086000EF00D03B93F7870FEF008071EF00103B54
:10087000EF00D03A032541008320010013018100DD
:1008800067800000130181FF232011002322A100B3
:10089000370500201305C5022320F50093F7070F45
:1008A00093E7D700EF00C06DEF005037EF0010372F
:1008B00093F7970FEF00C06CEF005036EF00103643
:1008C000370500201305C5028327050093F7F700BD
:1008D0009397470093E7D700EF00806AEF0010344A
:1008E000EF00D03393F7970FEF008069EF001033DC
:1008F000EF00D03203254100832001001301810065
:1009000067800000130181FF232011002322F100E2
:10091000EF00102E9307C003EF008066EF00103049
:10092000EF00D02F93078003EF008065EF00902940
:100930009307C003EF00C064EF00502EEF00102EAD
:1009400093078003EF00C063EF00D0279307C00335
:10095000EF000063EF00902CEF00502C9307800312
:10096000EF000062EF0010269307C002EF00406125
:10097000EF00D02AEF00902A93078002EF0040603A
:10098000EF00D02193078002EFF0DFE7EF001021A6
:100990009307C000EFF01FE7EF00502093076000BF
:1009A000EFF05FE6EF00901F93071000EFF09FE578
:1009B000EF00D01EEF00901E93072000EFF09FE4A1
:1009C000EF00D01DEF00901D832741008320010020
:1009D00013018100678000001301C1FF2320110073
:1009E000630A03021303000C33037300930703002D
:1009F000EFF05FE1EF009022EF005022EF001022B5
:100A0000EF00D021EF00902183200100130141006D
:100A1000678000001303000833037300930703008B
:100A2000EFF05FDEEF00901FEF00501FEF00101F90
:100A3000EF00D01EEF00901E832001001301410043
:100A400067800000130181FF232011002322F100A1
:100A50008307060063800702EFF0DFE2EF00101C5F
:100A6000EF00D01BEF00901BEF00501B1306160089
:100A70006FF01FFE832741008320010013018100D6
:100A800067800000130181FF232011002322F10061
:100A900093071000EFF01FD7EF005010EF00101079
:100AA000832741008320010013018100678000003B
:100AB000130101FF23201100232261002324A10040
:100AC0002326F100370500201305C5041305650032
:100AD0000303050013051500230065001305F5FF4A
:100AE0001303E00223006500130181FF232061004E
:100AF000232271001303100093031000EFF0DFEDC9
:100B00008323410003230100130181001303A0008C
:100B1000370500201305C50483070500EFF09FD6B5
:100B2000EF00D00FEF00900F130515001303F3FF34
:100B3000E31403FE130181FF2320610023227100CF
:100B40001303100093039000EFF01FE9832341008B
:100B500003230100130181001301C1FF2320C10001
:100B6000171600001306F629EFF0DFED032601004B
:100B7000130141008327C1000325810003234100A5
:100B8000832001001301010167800000130101FFB0
:100B900023201100232261002324A1002326F10039
:100BA000370500201305C504130565000303050080
:100BB00013051500230065001305F5FF1303E0027C
:100BC00023006500130181FF2320610023227100AF
:100BD0001303000093030000EFF01FE083234100A4
:100BE00003230100130181001301C1FF2320C10071
:100BF0001716000013060624EFF0DFE403260100B9
:100C00001301410013036000370500201305C504DC
:100C10001305250083070500EFF0DFC6EF00100085
:100C2000EF00C07F130515001303F3FFE31403FE69
:100C30001301C1FF2320C100171600001306F61F81
:100C4000EFF05FE003260100130141008327C1009C
:100C500003258100032341008320010013010101CA
:100C6000678000001301C1FD232011002322A10091
:100C70002324B1002326510023286100232A710078
:100C8000232CF100232E310023204102B70700203E
:100C90009387070303A5070063000504634E05025D
:100CA000B70200209382020483A502009302000091
:100CB0009303000013030500938105006382010282
:100CC0003382630033367200B382C20093030200A2
:100CD0009381F1FF6FF09FFE9303000093020000E9
:100CE0001385030093850200B7070020938707024E
:100CF00023A0A700B70700209387470223A0B700CF
:100D0000032201028321C101832781018323410141
:100D1000032301018322C1008325810003254100B3
:100D20008320010013014102678000001301C1FE0E
:100D3000232011002322A100232431002326410077
:100D4000232871003705002013050502032505003F
:100D5000B70100209381C104372220201302020230
:100D600023A04100373230201302020223A24100A7
:100D70009381A100EF00400313020203238041008E
:100D80009381F1FF93831300E31605FE8323010192
:100D90000322C1008321810003254100832001003B
:100DA00013014101678000001301C1FE23201100DF
:100DB0002322B1002324510023263100232871006F
:100DC0009305000093020002930105001305000043
:100DD0001315150093D3F10193911100939515000C
:100DE000B3E575009303A00063E67500B385754015
:100DF000136515009382F2FFE39C02FC1382050049
:100E0000832301018321C1008322810083254100C6
:100E10008320010013014101678000001301C1FE1E
:100E2000232811002326B1002324A10023228100BE
:100E300023206100B70500209385C50223A005008B
:100E4000370500201305C504130300009307A00015
:100E5000030405001302000363084404B7050020DF
:100E60009385C5029302100023A0550013051500B9
:100E700013031300EF00C05EE31CF3FC1304D00067
:100E8000EF00005E1304A000EF00805D032301006B
:100E900003244100032581008325C1008320010133
:100EA0001301410167800000B70500209385C5024A
:100EB00083A205006398020013040002130290004D
:100EC000630443006FF09FFA130400036FF01FFAEE
:100ED000130141FF232011002322A1002324B1008C
:100EE00037550040130585418315050093F525000E
:100EF000E39805FE8325810003254100832001003E
:100F00001301C100678000001301C1FE23201100FE
:100F10002322C1002324B1002326A100232871002D
:100F200037550040130505408315050093E505502E
:100F30002310B500375500401305454183150500C2
:100F400037550040130585410316050013160601A9
:100F5000B3E5C500B703030093831300B3F5750031
:100F6000E39A75FC832301010325C10083258100D9
:100F70000326410083200100130141016780000026
:100F8000130141FF232011002322A1002324B100DB
:100F900037550040130545418315050093F50508B5
:100FA000E38805FE37550040130505412300F50091
:100FB0008325810003254100832001001301C10026
:100FC00067800000130141FF232011002322A100AC
:100FD0002324B10037550040130505408315050053
:100FE00093F5F5BF2310B50083258100032541004B
:100FF000832001001301C10067800000130141FF3D
:10100000232011002322A1002324B10037550040E2
:10101000130545418315050093F50508E38805FE92
:101020008325810003254100832001001301C100B5
:1010300067800000130141FF232011002322A1003B
:101040002324B100375500401305054083150500E2
:1010500093E505202310B500832581000325410079
:10106000832001001301C100678000001301C1FE4D
:10107000232011002322A1002324B1002326C10034
:101080002328710037550040130505412300F50062
:10109000375500401305454183150500375500407D
:1010A000130585410316050013160601B3E5C500B7
:1010B000B703070093832308B3F57500E39A75FC23
:1010C000832301010326C1008325810003254100FC
:1010D000832001001301410167800000130101FF1B
:1010E000232011002322A1002324B1002326C100C4
:1010F000375500401305454183150500375500401D
:10110000130585410316050013160601B3E5C50056
:1011100037050020130545042320B5000326C10030
:101120008325810003254100832001001301010173
:1011300067800000130141FF232011002322A1003A
:101140002324B10037550040130545418325050090
:1011500093F54500E38805FE8325810003254100C2
:10116000832001001301C100678000001301C1FE4C
:10117000232011002322A1002324B1002326610093
:101180002328C100370300201303430437550040D0
:10119000130545418315050037550040130585416A
:1011A0000316050013160601B3E5C500B7030300D7
:1011B00093832300B3F57500E39A75FC375500401F
:1011C000130545418315050037550040130585413A
:1011D00083150500EFF01FDFEFF0DFE53755004026
:1011E000130545418325050093F50504E38805FEB5
:1011F0003755004013050541830705002300F30020
:10120000032601010323C10083258100032541003A
:10121000832001001301410167800000130141FE9A
:10122000232011002322A1002324B10023266100E2
:1012300023287100232A5100232CC1003755004078
:10124000130505412300F5003755004013054541BE
:101250008315050037550040130585410316050029
:1012600013160601B3E5C500B703030093832300FB
:10127000B3F57500E39A75FC3755004013054541F9
:10128000831505003755004013058541831505007A
:101290009303200063FC530237550040130545417A
:1012A0008325050093F50504E38805FE37550040C6
:1012B00013050541830705002300F3001303130002
:1012C0009382F2FF63F453006FF01FFD3755004027
:1012D000130545418315050093F50504E38805FED4
:1012E0003755004013050541830705002300F3002F
:1012F00013031300EFF01FCDEFF0DFD3375500409D
:10130000130545418315050093F50504E38805FEA3
:101310003755004013050541830705002300F300FE
:101320000326810183224101832301010323C1009C
:101330008325810003254100832001001301C101A1
:1013400067800000130181FF232011002322610028
:1013500037B33201130353401303F3FFE31E03FEBD
:1013600003234100832001001301810067800000F6
:10137000130181FF232011002322610037B31E00D7
:101380001303A3B91303F3FFE31E03FE032341007A
:10139000832001001301810067800000130181FF99
:1013A00023201100232261001303A07D1303F3FF08
:1013B000E31E03FE0323410083200100130181008B
:1013C00067800000130181FF2320110023226100A8
:1013D00037530000130343E81303F3FFE31E03FE38
:1013E0000323410083200100130181006780000076
:1013F000130181FF23201100232261003793010094
:10140000130343891303F3FFE31E03FE0323410089
:10141000832001001301810067800000130181FF18
:101420002320110023226100130390061303F3FF0E
:10143000E31E03FE0323410083200100130181000A
:10144000678000001301C1FF232011001303F3FF85
:10145000E31E03FE832001001301410067800000AA
:10146000130101FF23201100232271002324A10076
:101470002326B1003745014013050580832505006B
:1014800093F50508E38E05FC9303040037450140FE
:10149000130545802300750037450140130505807D
:1014A0008325050093F50504E38805FE8325C10027
:1014B00003258100832341008320010013010101E2
:1014C000678000001301C1FE232011002322A10028
:1014D0002324D1002326E1002328810093860300E2
:1014E00093F6060F93D6460013A7A600630A0700DB
:1014F00093E6060313840600EFF09FF66F000001E9
:101500009386760313840600EFF09FF5938603001D
:1015100093F6F60013A7A600630A070093E60603F6
:1015200013840600EFF0DFF36F000001938676036B
:1015300013840600EFF0DFF2032401010327C1004A
:10154000832681000325410083200100130141010E
:10155000678000001301C1FE232011002322A10097
:1015600023246100232671002328810037050020F1
:10157000130505031303400083033500EFF09FF4C8
:101580001305F5FF1303F3FFE31803FE1304D00064
:10159000EFF01FED1304A000EFF09FEC37050020E3
:1015A000130505041303400083033500EFF09FF19A
:1015B0001305F5FF1303F3FFE31803FE1304D00034
:1015C000EFF01FEA1304A000EFF09FE903240101EC
:1015D0008323C100032381000325410083200100F0
:1015E0001301410167800000130101FE2320110057
:1015F0002322A1002324B1002326C1002328D100E7
:10160000232AE100232CF100232E610013030000A4
:101610009303000013060000130700009307000067
:101620003705002013050501832505003705002037
:101630001305450183260500B387D54033B3D50094
:10164000631A030093850700B307E64093831300F2
:101650006FF09FFEB70200209382020323A0720066
:10166000B70200209382420323A0B2000323C101EA
:101670008327810103274101832601010326C1003D
:10168000832581000325410083200100130101020D
:1016900067800000130101FF232011002322510065
:1016A000232431002326410093028000930103008C
:1016B0001303100033F2610063160202EF00C0252D
:1016C00093D111009382F2FFE39402FE0322C10042
:1016D0008321810083224100832001001301010145
:1016E00067800000EF00002093D111009382F2FF89
:1016F000E39002FC0322C100832181008322410088
:10170000832001001301010167800000130101FF24
:1017100023201100232251002324310023264100DD
:1017200093028000EF008015370500201305850423
:101730000322050063160204930103001303100043
:1017400033F2610063160202EF00001D93D1110015
:101750009382F2FFE39402FE0322C1008321810001
:1017600083224100832001001301010167800000F2
:10177000EF00401793D111009382F2FFE39002FC37
:101780000322C100832181008322410083200100C4
:101790001301010167800000130101FF23201100E4
:1017A0002322A1002324B100232671003715014014
:1017B0001305054083250500930300FFB3F575006D
:1017C00093033000B3E575002320B5008323C100E7
:1017D00083258100032541008320010013010101BD
:1017E00067800000130101FF232011002322A100C4
:1017F0002324B1002326710037150140130505404D
:1018000083250500930300FFB3F5750093034000A3
:10181000B3E575002320B5008323C1008325810033
:1018200003254100832001001301010167800000AE
:10183000130101FF232011002322A1002324B10062
:1018400023267100371501401305854083250500C7
:1018500093031000B3F575003705002013058504C8
:101860002320B5008323C100832581000325410087
:101870008320010013010101678000001301C1FFF3
:1018800023201100EFF05FF11301C1FF232061005D
:101890001303803EEFF01FBB03230100130141003F
:1018A000EFF05FF41301C1FF232061001303800CEC
:1018B000EFF05FB90323010013014100EFF05FF780
:1018C0001301C1FF2320610013038025EFF09FB7B0
:1018D0000323010013014100832001001301410093
:1018E000678000001301C1FF23201100EFF0DFEA41
:1018F000EFF05FEF1301C1FF232061001303800CA1
:10190000EFF05FB4032301001301410083200100C5
:1019100013014100678000001301C1FF2320110063
:10192000EFF09FE71301C1FF23206100130360095B
:10193000EFF05FB10323010013014100EFF09FEAD4
:10194000832001001301410067800000130101FFA3
:10195000232011002322A1002324B100232671009B
:10196000370500201305450423200500EFF0DFE2D2
:10197000EFF05FE71301C1FF232061001303800232
:10198000EFF05FAC03230100130141003715014064
:10199000130585408325050093031000B3F57500FA
:1019A00037050020130545042320B5001301C1FFAE
:1019B000232061001303A000EFF0DFA80323010040
:1019C000130141008323C1008325810003254100C9
:1019D000832001001301010167800000130181FED3
:1019E0002320110023225100232481002326A1005B
:1019F0002328B100232A7100930280001304000001
:101A0000EFF09FD9EFF01FDE1301C1FF232061002B
:101A100013034001EFF01FA3032301001301410052
:101A200037150140130585408325050093031000F9
:101A3000B3F57500639C0504135414001301C1FF32
:101A40002320610013038002EFF0DF9F03230100D6
:101A5000130141009382F2FFE39402FA13548401CC
:101A60003705002013054504232085008323410109
:101A7000832501010325C100032481008322410045
:101A8000832001001301810167800000B7030080FB
:101A900013541400336474001301C1FF2320610048
:101AA00013038002EFF01F9A03230100130141008A
:101AB0009382F2FFE39602F4135484013705002069
:101AC000130545042320850083234101832501015B
:101AD0000325C100032481008322410083200100EB
:101AE0001301810167800000130181FE2320110092
:101AF00023225100232481002326A1002328B100A2
:101B0000232A71009302900013040000370500207F
:101B10001305C50413058500EFF05FECB705002041
:101B20009385450483830500230075001305F5FFA5
:101B30009382F2FFE39202FE832341018325010198
:101B40000325C1000324810083224100832001007A
:101B50001301810167800000130101FE23201100A1
:101B60002322310023244100232651002328610031
:101B7000232A7100232CA100232EB100930300041B
:101B800093018000370500201305C5041305850067
:101B9000B70500209385C5000342050093020000AD
:101BA00033C34200137313006304030093C2821112
:101BB00093D21200135212009383F3FF9381F1FF2B
:101BC000E39001FE23805500638C03001305F5FFAD
:101BD000930180000342050083C205006FF05FFCA3
:101BE0008325C101032581018323410103230101D1
:101BF0008322C10003228100832141008320010050
:101C000013010102678000001301C1FC23201100B1
:101C10002322A1002324B1002326C1002328D100C0
:101C2000232AE100232CF100232E5100232031022E
:101C300023226102232441022326810223287102E8
:101C4000370500201305C5041305850083450500ED
:101C50001301C1FF2300B1001305F5FF8345050003
:101C6000A300B10083550100130141003726000095
:101C70001306A686930600001307000093070000D2
:101C8000930200029301060093F11100639C01008E
:101C9000EF0080029382F2FFE39602FE131313001B
:101CA0006F00000AEF00C0049382F2FFE39C02FC85
:101CB000131313006F00C0081301C1FF232011008C
:101CC0001356160093D61600130207001372120063
:101CD0006306020037020080B3E646001357170080
:101CE000135313008320010013014100678000009B
:101CF0001301C1FF232011003307B7003334B700AD
:101D0000631A04021356160093D616001302070036
:101D1000137212006306020037020080B3E6460029
:101D200013571700135313008320010013014100C0
:101D300067800000B7030080336373006FF09FFC7F
:101D40006304030013070300370500201305450251
:101D50002320E50037050020130505022320D500C8
:101D6000832301030324C1020322810203234102CE
:101D7000832101028322C1018327810103274101BD
:101D8000832601010326C10083258100032541002C
:101D9000832001001301410367800000130000004D
:041DA000000000003F
:101DA40020706C65617365207265207A65726F209E
:101DB4000020622034207765696768696E672000B7
:101DC40020776569676874200020207A65726F69DE
:101DD4006E67200020706C616365207765696768B1
:101DE400742035676D200020706C61636520776511
:101DF40069676874203130676D2000206772616DF7
:101E0400730020656D7074792074617265200043DD
:101E1400616C6962726174696E670043616C6962C6
:101E2400726174696F6E20646F6E650054656D70C5
:061E3400203A00204300EB
:00000001FF
